{
  "_format": "hh-sol-artifact-1",
  "contractName": "ERC1155SignatureMint",
  "sourceName": "@thirdweb-dev/contracts/base/ERC1155SignatureMint.sol",
  "abi": [
    {
      "inputs": [
        {
          "internalType": "address",
          "name": "_defaultAdmin",
          "type": "address"
        },
        {
          "internalType": "string",
          "name": "_name",
          "type": "string"
        },
        {
          "internalType": "string",
          "name": "_symbol",
          "type": "string"
        },
        {
          "internalType": "address",
          "name": "_royaltyRecipient",
          "type": "address"
        },
        {
          "internalType": "uint128",
          "name": "_royaltyBps",
          "type": "uint128"
        },
        {
          "internalType": "address",
          "name": "_primarySaleRecipient",
          "type": "address"
        }
      ],
      "stateMutability": "nonpayable",
      "type": "constructor"
    },
    {
      "inputs": [
        {
          "internalType": "uint256",
          "name": "index",
          "type": "uint256"
        }
      ],
      "name": "BatchMintInvalidBatchId",
      "type": "error"
    },
    {
      "inputs": [
        {
          "internalType": "uint256",
          "name": "tokenId",
          "type": "uint256"
        }
      ],
      "name": "BatchMintInvalidTokenId",
      "type": "error"
    },
    {
      "inputs": [
        {
          "internalType": "uint256",
          "name": "batchId",
          "type": "uint256"
        }
      ],
      "name": "BatchMintMetadataFrozen",
      "type": "error"
    },
    {
      "inputs": [],
      "name": "ContractMetadataUnauthorized",
      "type": "error"
    },
    {
      "inputs": [
        {
          "internalType": "address",
          "name": "recipient",
          "type": "address"
        },
        {
          "internalType": "uint256",
          "name": "value",
          "type": "uint256"
        }
      ],
      "name": "CurrencyTransferLibFailedNativeTransfer",
      "type": "error"
    },
    {
      "inputs": [],
      "name": "OwnableUnauthorized",
      "type": "error"
    },
    {
      "inputs": [
        {
          "internalType": "address",
          "name": "recipient",
          "type": "address"
        }
      ],
      "name": "PrimarySaleInvalidRecipient",
      "type": "error"
    },
    {
      "inputs": [],
      "name": "PrimarySaleUnauthorized",
      "type": "error"
    },
    {
      "inputs": [
        {
          "internalType": "uint256",
          "name": "max",
          "type": "uint256"
        },
        {
          "internalType": "uint256",
          "name": "actual",
          "type": "uint256"
        }
      ],
      "name": "RoyaltyExceededMaxFeeBps",
      "type": "error"
    },
    {
      "inputs": [
        {
          "internalType": "address",
          "name": "recipient",
          "type": "address"
        }
      ],
      "name": "RoyaltyInvalidRecipient",
      "type": "error"
    },
    {
      "inputs": [],
      "name": "RoyaltyUnauthorized",
      "type": "error"
    },
    {
      "anonymous": false,
      "inputs": [
        {
          "indexed": true,
          "internalType": "address",
          "name": "_owner",
          "type": "address"
        },
        {
          "indexed": true,
          "internalType": "address",
          "name": "_operator",
          "type": "address"
        },
        {
          "indexed": false,
          "internalType": "bool",
          "name": "_approved",
          "type": "bool"
        }
      ],
      "name": "ApprovalForAll",
      "type": "event"
    },
    {
      "anonymous": false,
      "inputs": [
        {
          "indexed": false,
          "internalType": "uint256",
          "name": "_fromTokenId",
          "type": "uint256"
        },
        {
          "indexed": false,
          "internalType": "uint256",
          "name": "_toTokenId",
          "type": "uint256"
        }
      ],
      "name": "BatchMetadataUpdate",
      "type": "event"
    },
    {
      "anonymous": false,
      "inputs": [
        {
          "indexed": false,
          "internalType": "string",
          "name": "prevURI",
          "type": "string"
        },
        {
          "indexed": false,
          "internalType": "string",
          "name": "newURI",
          "type": "string"
        }
      ],
      "name": "ContractURIUpdated",
      "type": "event"
    },
    {
      "anonymous": false,
      "inputs": [
        {
          "indexed": true,
          "internalType": "address",
          "name": "newRoyaltyRecipient",
          "type": "address"
        },
        {
          "indexed": false,
          "internalType": "uint256",
          "name": "newRoyaltyBps",
          "type": "uint256"
        }
      ],
      "name": "DefaultRoyalty",
      "type": "event"
    },
    {
      "anonymous": false,
      "inputs": [],
      "name": "MetadataFrozen",
      "type": "event"
    },
    {
      "anonymous": false,
      "inputs": [
        {
          "indexed": true,
          "internalType": "address",
          "name": "prevOwner",
          "type": "address"
        },
        {
          "indexed": true,
          "internalType": "address",
          "name": "newOwner",
          "type": "address"
        }
      ],
      "name": "OwnerUpdated",
      "type": "event"
    },
    {
      "anonymous": false,
      "inputs": [
        {
          "indexed": true,
          "internalType": "address",
          "name": "recipient",
          "type": "address"
        }
      ],
      "name": "PrimarySaleRecipientUpdated",
      "type": "event"
    },
    {
      "anonymous": false,
      "inputs": [
        {
          "indexed": true,
          "internalType": "uint256",
          "name": "tokenId",
          "type": "uint256"
        },
        {
          "indexed": true,
          "internalType": "address",
          "name": "royaltyRecipient",
          "type": "address"
        },
        {
          "indexed": false,
          "internalType": "uint256",
          "name": "royaltyBps",
          "type": "uint256"
        }
      ],
      "name": "RoyaltyForToken",
      "type": "event"
    },
    {
      "anonymous": false,
      "inputs": [
        {
          "indexed": true,
          "internalType": "address",
          "name": "signer",
          "type": "address"
        },
        {
          "indexed": true,
          "internalType": "address",
          "name": "mintedTo",
          "type": "address"
        },
        {
          "indexed": true,
          "internalType": "uint256",
          "name": "tokenIdMinted",
          "type": "uint256"
        },
        {
          "components": [
            {
              "internalType": "address",
              "name": "to",
              "type": "address"
            },
            {
              "internalType": "address",
              "name": "royaltyRecipient",
              "type": "address"
            },
            {
              "internalType": "uint256",
              "name": "royaltyBps",
              "type": "uint256"
            },
            {
              "internalType": "address",
              "name": "primarySaleRecipient",
              "type": "address"
            },
            {
              "internalType": "uint256",
              "name": "tokenId",
              "type": "uint256"
            },
            {
              "internalType": "string",
              "name": "uri",
              "type": "string"
            },
            {
              "internalType": "uint256",
              "name": "quantity",
              "type": "uint256"
            },
            {
              "internalType": "uint256",
              "name": "pricePerToken",
              "type": "uint256"
            },
            {
              "internalType": "address",
              "name": "currency",
              "type": "address"
            },
            {
              "internalType": "uint128",
              "name": "validityStartTimestamp",
              "type": "uint128"
            },
            {
              "internalType": "uint128",
              "name": "validityEndTimestamp",
              "type": "uint128"
            },
            {
              "internalType": "bytes32",
              "name": "uid",
              "type": "bytes32"
            }
          ],
          "indexed": false,
          "internalType": "struct ISignatureMintERC1155.MintRequest",
          "name": "mintRequest",
          "type": "tuple"
        }
      ],
      "name": "TokensMintedWithSignature",
      "type": "event"
    },
    {
      "anonymous": false,
      "inputs": [
        {
          "indexed": true,
          "internalType": "address",
          "name": "_operator",
          "type": "address"
        },
        {
          "indexed": true,
          "internalType": "address",
          "name": "_from",
          "type": "address"
        },
        {
          "indexed": true,
          "internalType": "address",
          "name": "_to",
          "type": "address"
        },
        {
          "indexed": false,
          "internalType": "uint256[]",
          "name": "_ids",
          "type": "uint256[]"
        },
        {
          "indexed": false,
          "internalType": "uint256[]",
          "name": "_values",
          "type": "uint256[]"
        }
      ],
      "name": "TransferBatch",
      "type": "event"
    },
    {
      "anonymous": false,
      "inputs": [
        {
          "indexed": true,
          "internalType": "address",
          "name": "_operator",
          "type": "address"
        },
        {
          "indexed": true,
          "internalType": "address",
          "name": "_from",
          "type": "address"
        },
        {
          "indexed": true,
          "internalType": "address",
          "name": "_to",
          "type": "address"
        },
        {
          "indexed": false,
          "internalType": "uint256",
          "name": "_id",
          "type": "uint256"
        },
        {
          "indexed": false,
          "internalType": "uint256",
          "name": "_value",
          "type": "uint256"
        }
      ],
      "name": "TransferSingle",
      "type": "event"
    },
    {
      "anonymous": false,
      "inputs": [
        {
          "indexed": false,
          "internalType": "string",
          "name": "_value",
          "type": "string"
        },
        {
          "indexed": true,
          "internalType": "uint256",
          "name": "_id",
          "type": "uint256"
        }
      ],
      "name": "URI",
      "type": "event"
    },
    {
      "inputs": [
        {
          "internalType": "address",
          "name": "",
          "type": "address"
        },
        {
          "internalType": "uint256",
          "name": "",
          "type": "uint256"
        }
      ],
      "name": "balanceOf",
      "outputs": [
        {
          "internalType": "uint256",
          "name": "",
          "type": "uint256"
        }
      ],
      "stateMutability": "view",
      "type": "function"
    },
    {
      "inputs": [
        {
          "internalType": "address[]",
          "name": "accounts",
          "type": "address[]"
        },
        {
          "internalType": "uint256[]",
          "name": "ids",
          "type": "uint256[]"
        }
      ],
      "name": "balanceOfBatch",
      "outputs": [
        {
          "internalType": "uint256[]",
          "name": "",
          "type": "uint256[]"
        }
      ],
      "stateMutability": "view",
      "type": "function"
    },
    {
      "inputs": [
        {
          "internalType": "uint256",
          "name": "",
          "type": "uint256"
        }
      ],
      "name": "batchFrozen",
      "outputs": [
        {
          "internalType": "bool",
          "name": "",
          "type": "bool"
        }
      ],
      "stateMutability": "view",
      "type": "function"
    },
    {
      "inputs": [
        {
          "internalType": "address",
          "name": "_to",
          "type": "address"
        },
        {
          "internalType": "uint256[]",
          "name": "_tokenIds",
          "type": "uint256[]"
        },
        {
          "internalType": "uint256[]",
          "name": "_amounts",
          "type": "uint256[]"
        },
        {
          "internalType": "string",
          "name": "_baseURI",
          "type": "string"
        }
      ],
      "name": "batchMintTo",
      "outputs": [],
      "stateMutability": "nonpayable",
      "type": "function"
    },
    {
      "inputs": [
        {
          "internalType": "address",
          "name": "_owner",
          "type": "address"
        },
        {
          "internalType": "uint256",
          "name": "_tokenId",
          "type": "uint256"
        },
        {
          "internalType": "uint256",
          "name": "_amount",
          "type": "uint256"
        }
      ],
      "name": "burn",
      "outputs": [],
      "stateMutability": "nonpayable",
      "type": "function"
    },
    {
      "inputs": [
        {
          "internalType": "address",
          "name": "_owner",
          "type": "address"
        },
        {
          "internalType": "uint256[]",
          "name": "_tokenIds",
          "type": "uint256[]"
        },
        {
          "internalType": "uint256[]",
          "name": "_amounts",
          "type": "uint256[]"
        }
      ],
      "name": "burnBatch",
      "outputs": [],
      "stateMutability": "nonpayable",
      "type": "function"
    },
    {
      "inputs": [],
      "name": "contractURI",
      "outputs": [
        {
          "internalType": "string",
          "name": "",
          "type": "string"
        }
      ],
      "stateMutability": "view",
      "type": "function"
    },
    {
      "inputs": [],
      "name": "getBaseURICount",
      "outputs": [
        {
          "internalType": "uint256",
          "name": "",
          "type": "uint256"
        }
      ],
      "stateMutability": "view",
      "type": "function"
    },
    {
      "inputs": [
        {
          "internalType": "uint256",
          "name": "_index",
          "type": "uint256"
        }
      ],
      "name": "getBatchIdAtIndex",
      "outputs": [
        {
          "internalType": "uint256",
          "name": "",
          "type": "uint256"
        }
      ],
      "stateMutability": "view",
      "type": "function"
    },
    {
      "inputs": [],
      "name": "getDefaultRoyaltyInfo",
      "outputs": [
        {
          "internalType": "address",
          "name": "",
          "type": "address"
        },
        {
          "internalType": "uint16",
          "name": "",
          "type": "uint16"
        }
      ],
      "stateMutability": "view",
      "type": "function"
    },
    {
      "inputs": [
        {
          "internalType": "uint256",
          "name": "_tokenId",
          "type": "uint256"
        }
      ],
      "name": "getRoyaltyInfoForToken",
      "outputs": [
        {
          "internalType": "address",
          "name": "",
          "type": "address"
        },
        {
          "internalType": "uint16",
          "name": "",
          "type": "uint16"
        }
      ],
      "stateMutability": "view",
      "type": "function"
    },
    {
      "inputs": [
        {
          "internalType": "address",
          "name": "",
          "type": "address"
        },
        {
          "internalType": "address",
          "name": "",
          "type": "address"
        }
      ],
      "name": "isApprovedForAll",
      "outputs": [
        {
          "internalType": "bool",
          "name": "",
          "type": "bool"
        }
      ],
      "stateMutability": "view",
      "type": "function"
    },
    {
      "inputs": [
        {
          "internalType": "address",
          "name": "_to",
          "type": "address"
        },
        {
          "internalType": "uint256",
          "name": "_tokenId",
          "type": "uint256"
        },
        {
          "internalType": "string",
          "name": "_tokenURI",
          "type": "string"
        },
        {
          "internalType": "uint256",
          "name": "_amount",
          "type": "uint256"
        }
      ],
      "name": "mintTo",
      "outputs": [],
      "stateMutability": "nonpayable",
      "type": "function"
    },
    {
      "inputs": [
        {
          "components": [
            {
              "internalType": "address",
              "name": "to",
              "type": "address"
            },
            {
              "internalType": "address",
              "name": "royaltyRecipient",
              "type": "address"
            },
            {
              "internalType": "uint256",
              "name": "royaltyBps",
              "type": "uint256"
            },
            {
              "internalType": "address",
              "name": "primarySaleRecipient",
              "type": "address"
            },
            {
              "internalType": "uint256",
              "name": "tokenId",
              "type": "uint256"
            },
            {
              "internalType": "string",
              "name": "uri",
              "type": "string"
            },
            {
              "internalType": "uint256",
              "name": "quantity",
              "type": "uint256"
            },
            {
              "internalType": "uint256",
              "name": "pricePerToken",
              "type": "uint256"
            },
            {
              "internalType": "address",
              "name": "currency",
              "type": "address"
            },
            {
              "internalType": "uint128",
              "name": "validityStartTimestamp",
              "type": "uint128"
            },
            {
              "internalType": "uint128",
              "name": "validityEndTimestamp",
              "type": "uint128"
            },
            {
              "internalType": "bytes32",
              "name": "uid",
              "type": "bytes32"
            }
          ],
          "internalType": "struct ISignatureMintERC1155.MintRequest",
          "name": "_req",
          "type": "tuple"
        },
        {
          "internalType": "bytes",
          "name": "_signature",
          "type": "bytes"
        }
      ],
      "name": "mintWithSignature",
      "outputs": [
        {
          "internalType": "address",
          "name": "signer",
          "type": "address"
        }
      ],
      "stateMutability": "payable",
      "type": "function"
    },
    {
      "inputs": [
        {
          "internalType": "bytes[]",
          "name": "data",
          "type": "bytes[]"
        }
      ],
      "name": "multicall",
      "outputs": [
        {
          "internalType": "bytes[]",
          "name": "results",
          "type": "bytes[]"
        }
      ],
      "stateMutability": "nonpayable",
      "type": "function"
    },
    {
      "inputs": [],
      "name": "name",
      "outputs": [
        {
          "internalType": "string",
          "name": "",
          "type": "string"
        }
      ],
      "stateMutability": "view",
      "type": "function"
    },
    {
      "inputs": [],
      "name": "nextTokenIdToMint",
      "outputs": [
        {
          "internalType": "uint256",
          "name": "",
          "type": "uint256"
        }
      ],
      "stateMutability": "view",
      "type": "function"
    },
    {
      "inputs": [],
      "name": "owner",
      "outputs": [
        {
          "internalType": "address",
          "name": "",
          "type": "address"
        }
      ],
      "stateMutability": "view",
      "type": "function"
    },
    {
      "inputs": [],
      "name": "primarySaleRecipient",
      "outputs": [
        {
          "internalType": "address",
          "name": "",
          "type": "address"
        }
      ],
      "stateMutability": "view",
      "type": "function"
    },
    {
      "inputs": [
        {
          "internalType": "uint256",
          "name": "tokenId",
          "type": "uint256"
        },
        {
          "internalType": "uint256",
          "name": "salePrice",
          "type": "uint256"
        }
      ],
      "name": "royaltyInfo",
      "outputs": [
        {
          "internalType": "address",
          "name": "receiver",
          "type": "address"
        },
        {
          "internalType": "uint256",
          "name": "royaltyAmount",
          "type": "uint256"
        }
      ],
      "stateMutability": "view",
      "type": "function"
    },
    {
      "inputs": [
        {
          "internalType": "address",
          "name": "from",
          "type": "address"
        },
        {
          "internalType": "address",
          "name": "to",
          "type": "address"
        },
        {
          "internalType": "uint256[]",
          "name": "ids",
          "type": "uint256[]"
        },
        {
          "internalType": "uint256[]",
          "name": "amounts",
          "type": "uint256[]"
        },
        {
          "internalType": "bytes",
          "name": "data",
          "type": "bytes"
        }
      ],
      "name": "safeBatchTransferFrom",
      "outputs": [],
      "stateMutability": "nonpayable",
      "type": "function"
    },
    {
      "inputs": [
        {
          "internalType": "address",
          "name": "from",
          "type": "address"
        },
        {
          "internalType": "address",
          "name": "to",
          "type": "address"
        },
        {
          "internalType": "uint256",
          "name": "id",
          "type": "uint256"
        },
        {
          "internalType": "uint256",
          "name": "amount",
          "type": "uint256"
        },
        {
          "internalType": "bytes",
          "name": "data",
          "type": "bytes"
        }
      ],
      "name": "safeTransferFrom",
      "outputs": [],
      "stateMutability": "nonpayable",
      "type": "function"
    },
    {
      "inputs": [
        {
          "internalType": "address",
          "name": "operator",
          "type": "address"
        },
        {
          "internalType": "bool",
          "name": "approved",
          "type": "bool"
        }
      ],
      "name": "setApprovalForAll",
      "outputs": [],
      "stateMutability": "nonpayable",
      "type": "function"
    },
    {
      "inputs": [
        {
          "internalType": "string",
          "name": "_uri",
          "type": "string"
        }
      ],
      "name": "setContractURI",
      "outputs": [],
      "stateMutability": "nonpayable",
      "type": "function"
    },
    {
      "inputs": [
        {
          "internalType": "address",
          "name": "_royaltyRecipient",
          "type": "address"
        },
        {
          "internalType": "uint256",
          "name": "_royaltyBps",
          "type": "uint256"
        }
      ],
      "name": "setDefaultRoyaltyInfo",
      "outputs": [],
      "stateMutability": "nonpayable",
      "type": "function"
    },
    {
      "inputs": [
        {
          "internalType": "address",
          "name": "_newOwner",
          "type": "address"
        }
      ],
      "name": "setOwner",
      "outputs": [],
      "stateMutability": "nonpayable",
      "type": "function"
    },
    {
      "inputs": [
        {
          "internalType": "address",
          "name": "_saleRecipient",
          "type": "address"
        }
      ],
      "name": "setPrimarySaleRecipient",
      "outputs": [],
      "stateMutability": "nonpayable",
      "type": "function"
    },
    {
      "inputs": [
        {
          "internalType": "uint256",
          "name": "_tokenId",
          "type": "uint256"
        },
        {
          "internalType": "address",
          "name": "_recipient",
          "type": "address"
        },
        {
          "internalType": "uint256",
          "name": "_bps",
          "type": "uint256"
        }
      ],
      "name": "setRoyaltyInfoForToken",
      "outputs": [],
      "stateMutability": "nonpayable",
      "type": "function"
    },
    {
      "inputs": [
        {
          "internalType": "bytes4",
          "name": "interfaceId",
          "type": "bytes4"
        }
      ],
      "name": "supportsInterface",
      "outputs": [
        {
          "internalType": "bool",
          "name": "",
          "type": "bool"
        }
      ],
      "stateMutability": "view",
      "type": "function"
    },
    {
      "inputs": [],
      "name": "symbol",
      "outputs": [
        {
          "internalType": "string",
          "name": "",
          "type": "string"
        }
      ],
      "stateMutability": "view",
      "type": "function"
    },
    {
      "inputs": [
        {
          "internalType": "uint256",
          "name": "",
          "type": "uint256"
        }
      ],
      "name": "totalSupply",
      "outputs": [
        {
          "internalType": "uint256",
          "name": "",
          "type": "uint256"
        }
      ],
      "stateMutability": "view",
      "type": "function"
    },
    {
      "inputs": [
        {
          "internalType": "uint256",
          "name": "_tokenId",
          "type": "uint256"
        }
      ],
      "name": "uri",
      "outputs": [
        {
          "internalType": "string",
          "name": "",
          "type": "string"
        }
      ],
      "stateMutability": "view",
      "type": "function"
    },
    {
      "inputs": [
        {
          "components": [
            {
              "internalType": "address",
              "name": "to",
              "type": "address"
            },
            {
              "internalType": "address",
              "name": "royaltyRecipient",
              "type": "address"
            },
            {
              "internalType": "uint256",
              "name": "royaltyBps",
              "type": "uint256"
            },
            {
              "internalType": "address",
              "name": "primarySaleRecipient",
              "type": "address"
            },
            {
              "internalType": "uint256",
              "name": "tokenId",
              "type": "uint256"
            },
            {
              "internalType": "string",
              "name": "uri",
              "type": "string"
            },
            {
              "internalType": "uint256",
              "name": "quantity",
              "type": "uint256"
            },
            {
              "internalType": "uint256",
              "name": "pricePerToken",
              "type": "uint256"
            },
            {
              "internalType": "address",
              "name": "currency",
              "type": "address"
            },
            {
              "internalType": "uint128",
              "name": "validityStartTimestamp",
              "type": "uint128"
            },
            {
              "internalType": "uint128",
              "name": "validityEndTimestamp",
              "type": "uint128"
            },
            {
              "internalType": "bytes32",
              "name": "uid",
              "type": "bytes32"
            }
          ],
          "internalType": "struct ISignatureMintERC1155.MintRequest",
          "name": "_req",
          "type": "tuple"
        },
        {
          "internalType": "bytes",
          "name": "_signature",
          "type": "bytes"
        }
      ],
      "name": "verify",
      "outputs": [
        {
          "internalType": "bool",
          "name": "success",
          "type": "bool"
        },
        {
          "internalType": "address",
          "name": "signer",
          "type": "address"
        }
      ],
      "stateMutability": "view",
      "type": "function"
    }
  ],
  "bytecode": "0x6101406040523480156200001257600080fd5b5060405162004c1138038062004c11833981016040819052620000359162000415565b6040518060400160405280601481526020017f5369676e61747572654d696e7445524331313535000000000000000000000000815250604051806040016040528060018152602001603160f81b8152508787878787838381600090816200009d919062000566565b506001620000ac828262000566565b505050620000c0856200018d60201b60201c565b620000d5826001600160801b038316620001df565b5050845160209586012084519486019490942060e08590526101008190524660a0818152604080517f8b73c3c69bb8fe3d512ecc4cf759cc79239f7b179b0ffacaa9a75d522b39400f818b01819052818301999099526060810194909452608080850193909352308483018190528151808603909301835260c0948501909152815191909801209052949094525050610120525060016200017562000275565b55620001818162000291565b50505050505062000632565b600680546001600160a01b038381166001600160a01b0319831681179093556040519116919082907f8292fce18fa69edf4db7b94ea2e58241df0ae57f97e0a6c9b29067028bf92d7690600090a35050565b6127108111156200021357604051630a4930ad60e31b81526127106004820152602481018290526044015b60405180910390fd5b600780546001600160a01b0384166001600160b01b03199091168117600160a01b61ffff851602179091556040518281527f90d7ec04bcb8978719414f82e52e4cb651db41d0e6f8cea6118c2191e6183adb9060200160405180910390a25050565b60006200028c6200030f60201b620017391760201c565b905090565b6001600160a01b038116620002c557604051630f7cac3760e21b81526001600160a01b03821660048201526024016200020a565b600e80546001600160a01b0319166001600160a01b0383169081179091556040517f299d17e95023f496e0ffc4909cff1a61f74bb5eb18de6f900f4155bfa1b3b33390600090a250565b7f1d281c488dae143b6ea4122e80c65059929950b9c32f17fc57be22089d9c3b0090565b80516001600160a01b03811681146200034b57600080fd5b919050565b634e487b7160e01b600052604160045260246000fd5b600082601f8301126200037857600080fd5b81516001600160401b038082111562000395576200039562000350565b604051601f8301601f19908116603f01168101908282118183101715620003c057620003c062000350565b81604052838152602092508683858801011115620003dd57600080fd5b600091505b83821015620004015785820183015181830184015290820190620003e2565b600093810190920192909252949350505050565b60008060008060008060c087890312156200042f57600080fd5b6200043a8762000333565b60208801519096506001600160401b03808211156200045857600080fd5b620004668a838b0162000366565b965060408901519150808211156200047d57600080fd5b506200048c89828a0162000366565b9450506200049d6060880162000333565b60808801519093506001600160801b0381168114620004bb57600080fd5b9150620004cb60a0880162000333565b90509295509295509295565b600181811c90821680620004ec57607f821691505b6020821081036200050d57634e487b7160e01b600052602260045260246000fd5b50919050565b601f8211156200056157600081815260208120601f850160051c810160208610156200053c5750805b601f850160051c820191505b818110156200055d5782815560010162000548565b5050505b505050565b81516001600160401b0381111562000582576200058262000350565b6200059a81620005938454620004d7565b8462000513565b602080601f831160018114620005d25760008415620005b95750858301515b600019600386901b1c1916600185901b1785556200055d565b600085815260208120601f198616915b828110156200060357888601518255948401946001909101908401620005e2565b5085821015620006225787850151600019600388901b60f8161c191681555b5050505050600190811b01905550565b60805160a05160c05160e051610100516101205161458f62000682600039600061309a015260006130e9015260006130c40152600061301d0152600061304701526000613071015261458f6000f3fe6080604052600436106101ed5760003560e01c8063830405321161010d578063ac9650d8116100a0578063bd85b0391161006f578063bd85b03914610628578063e8a3d48514610655578063e985e9c51461066a578063f242432a146106a5578063f5298aca146106c557600080fd5b8063ac9650d814610571578063b03f45281461059e578063b17cd86f146105be578063b24f2d39146105fd57600080fd5b806395d89b41116100dc57806395d89b411461050957806398a6e9931461051e5780639bcf7a1514610531578063a22cb4651461055157600080fd5b8063830405321461047b5780638da5cb5b146104ab578063938e3d7b146104c9578063949c09f7146104e957600080fd5b80632eb2c2d611610185578063600dd5ea11610154578063600dd5ea1461040657806363b45e2d146104265780636b20c4541461043b5780636f4f28371461045b57600080fd5b80632eb2c2d6146103625780633b1475a7146103825780634cc157df146103975780634e1273f4146103d957600080fd5b80630e89341c116101c15780630e89341c146102c157806313af4035146102e15780632419f51b146103035780632a55205a1461032357600080fd5b8062fdd58e146101f257806301ffc9a71461023d57806306fdde031461026d578063079fe40e1461028f575b600080fd5b3480156101fe57600080fd5b5061022a61020d3660046135ab565b600260209081526000928352604080842090915290825290205481565b6040519081526020015b60405180910390f35b34801561024957600080fd5b5061025d6102583660046135eb565b6106e5565b6040519015158152602001610234565b34801561027957600080fd5b50610282610752565b6040516102349190613658565b34801561029b57600080fd5b50600e546001600160a01b03165b6040516001600160a01b039091168152602001610234565b3480156102cd57600080fd5b506102826102dc36600461366b565b6107e0565b3480156102ed57600080fd5b506103016102fc366004613684565b6108ce565b005b34801561030f57600080fd5b5061022a61031e36600461366b565b6108ff565b34801561032f57600080fd5b5061034361033e36600461369f565b610956565b604080516001600160a01b039093168352602083019190915201610234565b34801561036e57600080fd5b5061030161037d36600461380a565b610993565b34801561038e57600080fd5b50600c5461022a565b3480156103a357600080fd5b506103b76103b236600461366b565b610a22565b604080516001600160a01b03909316835261ffff909116602083015201610234565b3480156103e557600080fd5b506103f96103f43660046138b3565b610a8d565b60405161023491906139b8565b34801561041257600080fd5b506103016104213660046135ab565b610ba1565b34801561043257600080fd5b5060095461022a565b34801561044757600080fd5b506103016104563660046139cb565b610bd4565b34801561046757600080fd5b50610301610476366004613684565b610d76565b34801561048757600080fd5b5061025d61049636600461366b565b600b6020526000908152604090205460ff1681565b3480156104b757600080fd5b506006546001600160a01b03166102a9565b3480156104d557600080fd5b506103016104e4366004613a3e565b610da4565b3480156104f557600080fd5b50610301610504366004613a72565b610dd2565b34801561051557600080fd5b50610282610fb0565b6102a961052c366004613b0a565b610fbd565b34801561053d57600080fd5b5061030161054c366004613ba9565b611239565b34801561055d57600080fd5b5061030161056c366004613bec565b61126e565b34801561057d57600080fd5b5061059161058c366004613c23565b611326565b6040516102349190613c97565b3480156105aa57600080fd5b506103016105b9366004613cf9565b611495565b3480156105ca57600080fd5b506105de6105d9366004613b0a565b61156b565b6040805192151583526001600160a01b03909116602083015201610234565b34801561060957600080fd5b506007546001600160a01b03811690600160a01b900461ffff166103b7565b34801561063457600080fd5b5061022a61064336600461366b565b600d6020526000908152604090205481565b34801561066157600080fd5b506102826115af565b34801561067657600080fd5b5061025d610685366004613d57565b600360209081526000928352604080842090915290825290205460ff1681565b3480156106b157600080fd5b506103016106c0366004613d8a565b6115bc565b3480156106d157600080fd5b506103016106e0366004613dee565b611644565b60006301ffc9a760e01b6001600160e01b0319831614806107165750636cdb3d1360e11b6001600160e01b03198316145b8061073157506303a24d0760e21b6001600160e01b03198316145b8061074c57506001600160e01b0319821663152a902d60e11b145b92915050565b6000805461075f90613e21565b80601f016020809104026020016040519081016040528092919081815260200182805461078b90613e21565b80156107d85780601f106107ad576101008083540402835291602001916107d8565b820191906000526020600020905b8154815290600101906020018083116107bb57829003601f168201915b505050505081565b6000818152600460205260408120805460609291906107fe90613e21565b80601f016020809104026020016040519081016040528092919081815260200182805461082a90613e21565b80156108775780601f1061084c57610100808354040283529160200191610877565b820191906000526020600020905b81548152906001019060200180831161085a57829003601f168201915b5050505050905060008151111561088e5792915050565b60006108998461175d565b9050806108a5856118db565b6040516020016108b6929190613e5b565b60405160208183030381529060405292505050919050565b6108d66119e3565b6108f3576040516316ccb9cb60e11b815260040160405180910390fd5b6108fc81611a10565b50565b600061090a60095490565b821061093157604051630793127760e11b8152600481018390526024015b60405180910390fd5b6009828154811061094457610944613e8a565b90600052602060002001549050919050565b60008060008061096586610a22565b90945084925061ffff16905061271061097e8287613eb6565b6109889190613ee3565b925050509250929050565b6001600160a01b0385163314806109cd57506001600160a01b038516600090815260036020908152604080832033845290915290205460ff165b610a0e5760405162461bcd60e51b81526020600482015260126024820152710853d5d3915497d3d497d054141493d5915160721b6044820152606401610928565b610a1b8585858585611a62565b5050505050565b6000818152600860209081526040808320815180830190925280546001600160a01b031680835260019091015492820192909252829115610a695780516020820151610a83565b6007546001600160a01b03811690600160a01b900461ffff165b9250925050915091565b60608151835114610ab05760405162461bcd60e51b815260040161092890613ef7565b600083516001600160401b03811115610acb57610acb6136c1565b604051908082528060200260200182016040528015610af4578160200160208202803683370190505b50905060005b8451811015610b995760026000868381518110610b1957610b19613e8a565b60200260200101516001600160a01b03166001600160a01b031681526020019081526020016000206000858381518110610b5557610b55613e8a565b6020026020010151815260200190815260200160002054828281518110610b7e57610b7e613e8a565b6020908102919091010152610b9281613f20565b9050610afa565b509392505050565b610ba96119e3565b610bc657604051636fae358160e11b815260040160405180910390fd5b610bd08282611c15565b5050565b336001600160a01b038416811480610c1157506001600160a01b0380851660009081526003602090815260408083209385168352929052205460ff165b610c515760405162461bcd60e51b81526020600482015260116024820152702ab730b8383937bb32b21031b0b63632b960791b6044820152606401610928565b8151835114610c945760405162461bcd60e51b815260206004820152600f60248201526e098cadccee8d040dad2e6dac2e8c6d608b1b6044820152606401610928565b60005b8351811015610d6457828181518110610cb257610cb2613e8a565b602002602001015160026000876001600160a01b03166001600160a01b031681526020019081526020016000206000868481518110610cf357610cf3613e8a565b60200260200101518152602001908152602001600020541015610d525760405162461bcd60e51b8152602060048201526017602482015276139bdd08195b9bdd59da081d1bdad95b9cc81bdddb9959604a1b6044820152606401610928565b610d5d600182613f39565b9050610c97565b50610d70848484611ca5565b50505050565b610d7e6119e3565b610d9b57604051631c98210f60e21b815260040160405180910390fd5b6108fc81611e5a565b610dac6119e3565b610dc957604051639f7f092560e01b815260040160405180910390fd5b6108fc81611ed6565b610dda6119e3565b610e205760405162461bcd60e51b81526020600482015260176024820152762737ba1030baba3437b934bd32b2103a379036b4b73a1760491b6044820152606401610928565b6000825111610e685760405162461bcd60e51b815260206004820152601460248201527326b4b73a34b733903d32b937903a37b5b2b7399760611b6044820152606401610928565b8151835114610eac5760405162461bcd60e51b815260206004820152601060248201526f2632b733ba341036b4b9b6b0ba31b41760811b6044820152606401610928565b6000610eb7600c5490565b9050806000805b8651811015610f7057600019878281518110610edc57610edc613e8a565b602002602001015103610f265783878281518110610efc57610efc613e8a565b6020908102919091010152610f12600185613f39565b9350610f1f600183613f39565b9150610f5e565b83878281518110610f3957610f39613e8a565b602002602001015110610f5e5760405162461bcd60e51b815260040161092890613f4c565b610f69600182613f39565b9050610ebe565b508015610f8557610f82828286611fb2565b50505b82600c81905550610fa787878760405180602001604052806000815250612016565b50505050505050565b6001805461075f90613e21565b60006002610fc9612171565b54036110175760405162461bcd60e51b815260206004820152601f60248201527f5265656e7472616e637947756172643a207265656e7472616e742063616c6c006044820152606401610928565b6002611021612171565b5560c084013561106a5760405162461bcd60e51b815260206004820152601460248201527326b4b73a34b733903d32b937903a37b5b2b7399760611b6044820152606401610928565b600080611076600c5490565b90506000198660800135036110a6578091506001600c600082825461109b9190613f39565b909155506110d19050565b808660800135106110c95760405162461bcd60e51b815260040161092890613f4c565b856080013591505b6110dc868686612180565b925060006110ed6020880188613684565b90506111236111026080890160608a01613684565b60c08901356111196101208b016101008c01613684565b8a60e00135612312565b60006111356040890160208a01613684565b6001600160a01b031614611161576111618361115760408a0160208b01613684565b896040013561240b565b6000198760800135036111b9576111b98361117f60a08a018a613f70565b8080601f0160208091040260200160405190810160405280939291908181526020018383808284376000920191909152506124b692505050565b6111d881848960c00135604051806020016040528060008152506124ce565b82816001600160a01b0316856001600160a01b03167f0b35afaf155daeef41cc46df86f058df2855c57d30ab134647a6b587e7cc8c398a60405161121c919061403b565b60405180910390a45050506001611231612171565b559392505050565b6112416119e3565b61125e57604051636fae358160e11b815260040160405180910390fd5b61126983838361240b565b505050565b336001600160a01b03831681036112b85760405162461bcd60e51b815260206004820152600e60248201526d20a8282927ab24a723afa9a2a62360911b6044820152606401610928565b6001600160a01b03818116600081815260036020908152604080832094881680845294825291829020805460ff191687151590811790915591519182527f17307eab39ab6107e8899845ad3d59bd9653f200f220920489ca2b5937696c3191015b60405180910390a3505050565b6060816001600160401b03811115611340576113406136c1565b60405190808252806020026020018201604052801561137357816020015b606081526020019060019003908161135e5790505b509050336000805b8481101561148c5781156113fa576113d83087878481811061139f5761139f613e8a565b90506020028101906113b19190613f70565b866040516020016113c49392919061416a565b6040516020818303038152906040526125a7565b8482815181106113ea576113ea613e8a565b602002602001018190525061147a565b61145c3087878481811061141057611410613e8a565b90506020028101906114229190613f70565b8080601f0160208091040260200160405190810160405280939291908181526020018383808284376000920191909152506125a792505050565b84828151811061146e5761146e613e8a565b60200260200101819052505b8061148481613f20565b91505061137b565b50505092915050565b61149d6119e3565b6114e35760405162461bcd60e51b81526020600482015260176024820152762737ba1030baba3437b934bd32b2103a379036b4b73a1760491b6044820152606401610928565b6000806114ef600c5490565b90506000198503611525578091506001600c60008282546115109190613f39565b90915550611520905081856124b6565b611548565b8085106115445760405162461bcd60e51b815260040161092890613f4c565b8491505b611563868385604051806020016040528060008152506124ce565b505050505050565b6000806115798585856125d3565b6101608601356000908152600f602052604090205490915060ff161580156115a557506115a58161262f565b9150935093915050565b6005805461075f90613e21565b6001600160a01b0385163314806115f657506001600160a01b038516600090815260036020908152604080832033845290915290205460ff165b6116375760405162461bcd60e51b81526020600482015260126024820152710853d5d3915497d3d497d054141493d5915160721b6044820152606401610928565b610a1b858585858561265e565b336001600160a01b03841681148061168157506001600160a01b0380851660009081526003602090815260408083209385168352929052205460ff165b6116c15760405162461bcd60e51b81526020600482015260116024820152702ab730b8383937bb32b21031b0b63632b960791b6044820152606401610928565b6001600160a01b038416600090815260026020908152604080832086845290915290205482111561172e5760405162461bcd60e51b8152602060048201526017602482015276139bdd08195b9bdd59da081d1bdad95b9cc81bdddb9959604a1b6044820152606401610928565b610d70848484612784565b7f1d281c488dae143b6ea4122e80c65059929950b9c32f17fc57be22089d9c3b0090565b6060600061176a60095490565b9050600060098054806020026020016040519081016040528092919081815260200182805480156117ba57602002820191906000526020600020905b8154815260200190600101908083116117a6575b5050505050905060005b828110156118be578181815181106117de576117de613e8a565b60200260200101518510156118ac57600a600083838151811061180357611803613e8a565b60200260200101518152602001908152602001600020805461182490613e21565b80601f016020809104026020016040519081016040528092919081815260200182805461185090613e21565b801561189d5780601f106118725761010080835404028352916020019161189d565b820191906000526020600020905b81548152906001019060200180831161188057829003601f168201915b50505050509350505050919050565b6118b7600182613f39565b90506117c4565b506040516309797f6960e21b815260048101859052602401610928565b6060816000036119025750506040805180820190915260018152600360fc1b602082015290565b8160005b811561192c578061191681613f20565b91506119259050600a83613ee3565b9150611906565b6000816001600160401b03811115611946576119466136c1565b6040519080825280601f01601f191660200182016040528015611970576020820181803683370190505b5090505b84156119db57611985600183614190565b9150611992600a866141a3565b61199d906030613f39565b60f81b8183815181106119b2576119b2613e8a565b60200101906001600160f81b031916908160001a9053506119d4600a86613ee3565b9450611974565b949350505050565b60006119f76006546001600160a01b031690565b6001600160a01b0316336001600160a01b031614905090565b600680546001600160a01b038381166001600160a01b0319831681179093556040519116919082907f8292fce18fa69edf4db7b94ea2e58241df0ae57f97e0a6c9b29067028bf92d7690600090a35050565b8151835114611a835760405162461bcd60e51b815260040161092890613ef7565b6001600160a01b038416611aa95760405162461bcd60e51b8152600401610928906141b7565b33611ab88187878787876128a9565b60005b8451811015611baf576000858281518110611ad857611ad8613e8a565b602002602001015190506000858381518110611af657611af6613e8a565b6020908102919091018101516001600160a01b038b166000908152600283526040808220868352909352919091205490915081811015611b485760405162461bcd60e51b8152600401610928906141dd565b6001600160a01b03808b16600090815260026020818152604080842088855282528084208787039055938d16835290815282822086835290529081208054849290611b94908490613f39565b9250508190555050505080611ba890613f20565b9050611abb565b50846001600160a01b0316866001600160a01b0316826001600160a01b03167f4a39dc06d4c0dbc64b70af90fd698a233a518aa5d07e595d983b8c0526c8f7fb8787604051611bff929190614207565b60405180910390a46115638187878787876129b5565b612710811115611c4357604051630a4930ad60e31b8152612710600482015260248101829052604401610928565b600780546001600160a01b0384166001600160b01b03199091168117600160a01b61ffff851602179091556040518281527f90d7ec04bcb8978719414f82e52e4cb651db41d0e6f8cea6118c2191e6183adb9060200160405180910390a25050565b6001600160a01b038316611cec5760405162461bcd60e51b815260206004820152600e60248201526d232927a6afad22a927afa0a2222960911b6044820152606401610928565b8051825114611d0d5760405162461bcd60e51b815260040161092890613ef7565b6000339050611d30818560008686604051806020016040528060008152506128a9565b60005b8351811015611dfb576000848281518110611d5057611d50613e8a565b602002602001015190506000848381518110611d6e57611d6e613e8a565b6020908102919091018101516001600160a01b0389166000908152600283526040808220868352909352919091205490915081811015611dc05760405162461bcd60e51b8152600401610928906141dd565b6001600160a01b0388166000908152600260209081526040808320958352949052929092209103905580611df381613f20565b915050611d33565b5060006001600160a01b0316846001600160a01b0316826001600160a01b03167f4a39dc06d4c0dbc64b70af90fd698a233a518aa5d07e595d983b8c0526c8f7fb8686604051611e4c929190614207565b60405180910390a450505050565b6001600160a01b038116611e8c57604051630f7cac3760e21b81526001600160a01b0382166004820152602401610928565b600e80546001600160a01b0319166001600160a01b0383169081179091556040517f299d17e95023f496e0ffc4909cff1a61f74bb5eb18de6f900f4155bfa1b3b33390600090a250565b600060058054611ee590613e21565b80601f0160208091040260200160405190810160405280929190818152602001828054611f1190613e21565b8015611f5e5780601f10611f3357610100808354040283529160200191611f5e565b820191906000526020600020905b815481529060010190602001808311611f4157829003601f168201915b505050505090508160059081611f74919061427b565b507fc9c7c3fe08b88b4df9d4d47ef47d2c43d55c025a0ba88ca442580ed9e7348a168183604051611fa692919061433a565b60405180910390a15050565b600080611fbf8486613f39565b60098054600181019091557f6e1540171b6c0c960b71a7020d9f60077f6af931a8bbf590da0223dacf75c7af018190556000818152600a6020526040902090925082915061200d848261427b565b50935093915050565b6001600160a01b03841661203c5760405162461bcd60e51b8152600401610928906141b7565b815183511461205d5760405162461bcd60e51b815260040161092890613ef7565b3361206d816000878787876128a9565b60005b84518110156121095783818151811061208b5761208b613e8a565b602002602001015160026000886001600160a01b03166001600160a01b0316815260200190815260200160002060008784815181106120cc576120cc613e8a565b6020026020010151815260200190815260200160002060008282546120f19190613f39565b9091555081905061210181613f20565b915050612070565b50846001600160a01b031660006001600160a01b0316826001600160a01b03167f4a39dc06d4c0dbc64b70af90fd698a233a518aa5d07e595d983b8c0526c8f7fb878760405161215a929190614207565b60405180910390a4610a1b816000878787876129b5565b600061217b611739565b905090565b60008061218e85858561156b565b92509050806121d15760405162461bcd60e51b815260206004820152600f60248201526e125b9d985b1a59081c995c5d595cdd608a1b6044820152606401610928565b426121e46101408701610120880161435f565b6001600160801b03161115801561221557506122086101608601610140870161435f565b6001600160801b03164211155b6122535760405162461bcd60e51b815260206004820152600f60248201526e14995c5d595cdd08195e1c1a5c9959608a1b6044820152606401610928565b60006122626020870187613684565b6001600160a01b0316036122ae5760405162461bcd60e51b81526020600482015260136024820152721c9958da5c1a595b9d081d5b9919599a5b9959606a1b6044820152606401610928565b60008560c00135116122ea5760405162461bcd60e51b8152602060048201526005602482015264302071747960d81b6044820152606401610928565b50610160909301356000908152600f60205260409020805460ff191660011790555090919050565b806000036123565734156123515760405162461bcd60e51b81526020600482015260066024820152652156616c756560d01b6044820152606401610928565b610d70565b60006123628285613eb6565b9050600073eeeeeeeeeeeeeeeeeeeeeeeeeeeeeeeeeeeeeeed196001600160a01b038516016123945750348114612398565b5034155b806123d95760405162461bcd60e51b8152602060048201526011602482015270496e76616c6964206d73672076616c756560781b6044820152606401610928565b60006001600160a01b038716156123f057866123fd565b600e546001600160a01b03165b9050610fa785338386612b08565b61271081111561243957604051630a4930ad60e31b8152612710600482015260248101829052604401610928565b6040805180820182526001600160a01b038481168083526020808401868152600089815260088352869020945185546001600160a01b031916941693909317845591516001909301929092559151838152909185917f7365cf4122f072a3365c20d54eff9b38d73c096c28e1892ec8f5b0e403a0f12d9101611319565b6000828152600460205260409020611269828261427b565b6001600160a01b0384166124f45760405162461bcd60e51b8152600401610928906141b7565b336125148160008761250588612b49565b61250e88612b49565b876128a9565b6001600160a01b038516600090815260026020908152604080832087845290915281208054859290612547908490613f39565b909155505060408051858152602081018590526001600160a01b0380881692600092918516917fc3d58168c5ae7397731d063d5bbf3d657854427343f4c083240f7aacaa2d0f62910160405180910390a4610a1b81600087878787612b94565b60606125cc838360405180606001604052806027815260200161453360279139612c71565b9392505050565b60006119db83838080601f016020809104026020016040519081016040528093929190818152602001838380828437600092019190915250612629925061261d9150889050612ce9565b80519060200120612e75565b90612ea2565b60006126436006546001600160a01b031690565b6001600160a01b0316826001600160a01b0316149050919050565b6001600160a01b0384166126845760405162461bcd60e51b8152600401610928906141b7565b3361269481878761250588612b49565b6001600160a01b0386166000908152600260209081526040808320878452909152902054838110156126d85760405162461bcd60e51b8152600401610928906141dd565b6001600160a01b0380881660009081526002602081815260408084208a855282528084208987039055938a16835290815282822088835290529081208054869290612724908490613f39565b909155505060408051868152602081018690526001600160a01b03808916928a821692918616917fc3d58168c5ae7397731d063d5bbf3d657854427343f4c083240f7aacaa2d0f62910160405180910390a4610fa7828888888888612b94565b6001600160a01b0383166127cb5760405162461bcd60e51b815260206004820152600e60248201526d232927a6afad22a927afa0a2222960911b6044820152606401610928565b336127fa818560006127dc87612b49565b6127e587612b49565b604051806020016040528060008152506128a9565b6001600160a01b03841660009081526002602090815260408083208684529091529020548281101561283e5760405162461bcd60e51b8152600401610928906141dd565b6001600160a01b03858116600081815260026020908152604080832089845282528083208887039055805189815291820188905291938616917fc3d58168c5ae7397731d063d5bbf3d657854427343f4c083240f7aacaa2d0f62910160405180910390a45050505050565b6001600160a01b0385166129305760005b835181101561292e578281815181106128d5576128d5613e8a565b6020026020010151600d60008684815181106128f3576128f3613e8a565b6020026020010151815260200190815260200160002060008282546129189190613f39565b90915550612927905081613f20565b90506128ba565b505b6001600160a01b0384166115635760005b8351811015610fa75782818151811061295c5761295c613e8a565b6020026020010151600d600086848151811061297a5761297a613e8a565b60200260200101518152602001908152602001600020600082825461299f9190614190565b909155506129ae905081613f20565b9050612941565b6001600160a01b0384163b156115635760405163bc197c8160e01b81526001600160a01b0385169063bc197c81906129f9908990899088908890889060040161437a565b6020604051808303816000875af1925050508015612a34575060408051601f3d908101601f19168201909252612a31918101906143d8565b60015b612ab657612a406143f5565b806308c379a003612a795750612a54614410565b80612a5f5750612a7b565b8060405162461bcd60e51b81526004016109289190613658565b505b60405162461bcd60e51b815260206004820152601060248201526f10a2a92198989a9aa922a1a2a4ab22a960811b6044820152606401610928565b6001600160e01b0319811663bc197c8160e01b14610fa75760405162461bcd60e51b815260206004820152600f60248201526e1513d2d15394d7d491529150d51151608a1b6044820152606401610928565b8015610d705773eeeeeeeeeeeeeeeeeeeeeeeeeeeeeeeeeeeeeeed196001600160a01b03851601612b3d576123518282612ebe565b610d7084848484612f44565b60408051600180825281830190925260609160009190602080830190803683370190505090508281600081518110612b8357612b83613e8a565b602090810291909101015292915050565b6001600160a01b0384163b156115635760405163f23a6e6160e01b81526001600160a01b0385169063f23a6e6190612bd89089908990889088908890600401614499565b6020604051808303816000875af1925050508015612c13575060408051601f3d908101601f19168201909252612c10918101906143d8565b60015b612c1f57612a406143f5565b6001600160e01b0319811663f23a6e6160e01b14610fa75760405162461bcd60e51b815260206004820152600f60248201526e1513d2d15394d7d491529150d51151608a1b6044820152606401610928565b6060600080856001600160a01b031685604051612c8e91906144d3565b600060405180830381855af49150503d8060008114612cc9576040519150601f19603f3d011682016040523d82523d6000602084013e612cce565b606091505b5091509150612cdf86838387612f97565b9695505050505050565b60607fc7a95ef88f83fa833ccfce325157b7111633b181b6a27181b86415d8d501134d612d196020840184613684565b612d296040850160208601613684565b6040850135612d3e6080870160608801613684565b6080870135612d5060a0890189613f70565b604051612d5e9291906144ef565b6040805191829003822060208301989098526001600160a01b03968716908201529385166060850152608084019290925290921660a082015260c081019190915260e08101919091526101000160408051601f1981840301815291905260c083013560e0840135612dd761012086016101008701613684565b612de96101408701610120880161435f565b612dfb6101608801610140890161435f565b6040805160208101969096528501939093526001600160a01b0390911660608401526001600160801b0390811660808401521660a082015261016084013560c082015260e00160408051601f1981840301815290829052612e5f9291602001613e5b565b6040516020818303038152906040529050919050565b600061074c612e82613010565b8360405161190160f01b8152600281019290925260228201526042902090565b6000806000612eb1858561313a565b91509150610b998161317f565b6000826001600160a01b03168260405160006040518083038185875af1925050503d8060008114612f0b576040519150601f19603f3d011682016040523d82523d6000602084013e612f10565b606091505b505090508061126957604051635fdc4ec160e11b81526001600160a01b038416600482015260248101839052604401610928565b816001600160a01b0316836001600160a01b03160315610d7057306001600160a01b03841603612f82576123516001600160a01b03851683836132c9565b610d706001600160a01b03851684848461332c565b60608315613006578251600003612fff576001600160a01b0385163b612fff5760405162461bcd60e51b815260206004820152601d60248201527f416464726573733a2063616c6c20746f206e6f6e2d636f6e74726163740000006044820152606401610928565b50816119db565b6119db8383613364565b6000306001600160a01b037f00000000000000000000000000000000000000000000000000000000000000001614801561306957507f000000000000000000000000000000000000000000000000000000000000000046145b1561309357507f000000000000000000000000000000000000000000000000000000000000000090565b50604080517f00000000000000000000000000000000000000000000000000000000000000006020808301919091527f0000000000000000000000000000000000000000000000000000000000000000828401527f000000000000000000000000000000000000000000000000000000000000000060608301524660808301523060a0808401919091528351808403909101815260c0909201909252805191012090565b90565b60008082516041036131705760208301516040840151606085015160001a61316487828585613374565b94509450505050613178565b506000905060025b9250929050565b6000816004811115613193576131936144ff565b0361319b5750565b60018160048111156131af576131af6144ff565b036131fc5760405162461bcd60e51b815260206004820152601860248201527f45434453413a20696e76616c6964207369676e617475726500000000000000006044820152606401610928565b6002816004811115613210576132106144ff565b0361325d5760405162461bcd60e51b815260206004820152601f60248201527f45434453413a20696e76616c6964207369676e6174757265206c656e677468006044820152606401610928565b6003816004811115613271576132716144ff565b036108fc5760405162461bcd60e51b815260206004820152602260248201527f45434453413a20696e76616c6964207369676e6174757265202773272076616c604482015261756560f01b6064820152608401610928565b6040516001600160a01b03831660248201526044810182905261126990849063a9059cbb60e01b906064015b60408051601f198184030181529190526020810180516001600160e01b03166001600160e01b031990931692909217909152613438565b6040516001600160a01b0380851660248301528316604482015260648101829052610d709085906323b872dd60e01b906084016132f5565b815115612a5f5781518083602001fd5b6000807f7fffffffffffffffffffffffffffffff5d576e7357a4501ddfe92f46681b20a08311156133ab575060009050600361342f565b6040805160008082526020820180845289905260ff881692820192909252606081018690526080810185905260019060a0016020604051602081039080840390855afa1580156133ff573d6000803e3d6000fd5b5050604051601f1901519150506001600160a01b0381166134285760006001925092505061342f565b9150600090505b94509492505050565b600061348d826040518060400160405280602081526020017f5361666545524332303a206c6f772d6c6576656c2063616c6c206661696c6564815250856001600160a01b031661350a9092919063ffffffff16565b80519091501561126957808060200190518101906134ab9190614515565b6112695760405162461bcd60e51b815260206004820152602a60248201527f5361666545524332303a204552433230206f7065726174696f6e20646964206e6044820152691bdd081cdd58d8d9595960b21b6064820152608401610928565b60606119db848460008585600080866001600160a01b0316858760405161353191906144d3565b60006040518083038185875af1925050503d806000811461356e576040519150601f19603f3d011682016040523d82523d6000602084013e613573565b606091505b509150915061358487838387612f97565b979650505050505050565b80356001600160a01b03811681146135a657600080fd5b919050565b600080604083850312156135be57600080fd5b6135c78361358f565b946020939093013593505050565b6001600160e01b0319811681146108fc57600080fd5b6000602082840312156135fd57600080fd5b81356125cc816135d5565b60005b8381101561362357818101518382015260200161360b565b50506000910152565b60008151808452613644816020860160208601613608565b601f01601f19169290920160200192915050565b6020815260006125cc602083018461362c565b60006020828403121561367d57600080fd5b5035919050565b60006020828403121561369657600080fd5b6125cc8261358f565b600080604083850312156136b257600080fd5b50508035926020909101359150565b634e487b7160e01b600052604160045260246000fd5b601f8201601f191681016001600160401b03811182821017156136fc576136fc6136c1565b6040525050565b60006001600160401b0382111561371c5761371c6136c1565b5060051b60200190565b600082601f83011261373757600080fd5b8135602061374482613703565b60405161375182826136d7565b83815260059390931b850182019282810191508684111561377157600080fd5b8286015b8481101561378c5780358352918301918301613775565b509695505050505050565b600082601f8301126137a857600080fd5b81356001600160401b038111156137c1576137c16136c1565b6040516137d8601f8301601f1916602001826136d7565b8181528460208386010111156137ed57600080fd5b816020850160208301376000918101602001919091529392505050565b600080600080600060a0868803121561382257600080fd5b61382b8661358f565b94506138396020870161358f565b935060408601356001600160401b038082111561385557600080fd5b61386189838a01613726565b9450606088013591508082111561387757600080fd5b61388389838a01613726565b9350608088013591508082111561389957600080fd5b506138a688828901613797565b9150509295509295909350565b600080604083850312156138c657600080fd5b82356001600160401b03808211156138dd57600080fd5b818501915085601f8301126138f157600080fd5b813560206138fe82613703565b60405161390b82826136d7565b83815260059390931b850182019282810191508984111561392b57600080fd5b948201945b83861015613950576139418661358f565b82529482019490820190613930565b9650508601359250508082111561396657600080fd5b5061397385828601613726565b9150509250929050565b600081518084526020808501945080840160005b838110156139ad57815187529582019590820190600101613991565b509495945050505050565b6020815260006125cc602083018461397d565b6000806000606084860312156139e057600080fd5b6139e98461358f565b925060208401356001600160401b0380821115613a0557600080fd5b613a1187838801613726565b93506040860135915080821115613a2757600080fd5b50613a3486828701613726565b9150509250925092565b600060208284031215613a5057600080fd5b81356001600160401b03811115613a6657600080fd5b6119db84828501613797565b60008060008060808587031215613a8857600080fd5b613a918561358f565b935060208501356001600160401b0380821115613aad57600080fd5b613ab988838901613726565b94506040870135915080821115613acf57600080fd5b613adb88838901613726565b93506060870135915080821115613af157600080fd5b50613afe87828801613797565b91505092959194509250565b600080600060408486031215613b1f57600080fd5b83356001600160401b0380821115613b3657600080fd5b908501906101808288031215613b4b57600080fd5b90935060208501359080821115613b6157600080fd5b818601915086601f830112613b7557600080fd5b813581811115613b8457600080fd5b876020828501011115613b9657600080fd5b6020830194508093505050509250925092565b600080600060608486031215613bbe57600080fd5b83359250613bce6020850161358f565b9150604084013590509250925092565b80151581146108fc57600080fd5b60008060408385031215613bff57600080fd5b613c088361358f565b91506020830135613c1881613bde565b809150509250929050565b60008060208385031215613c3657600080fd5b82356001600160401b0380821115613c4d57600080fd5b818501915085601f830112613c6157600080fd5b813581811115613c7057600080fd5b8660208260051b8501011115613c8557600080fd5b60209290920196919550909350505050565b6000602080830181845280855180835260408601915060408160051b870101925083870160005b82811015613cec57603f19888603018452613cda85835161362c565b94509285019290850190600101613cbe565b5092979650505050505050565b60008060008060808587031215613d0f57600080fd5b613d188561358f565b93506020850135925060408501356001600160401b03811115613d3a57600080fd5b613d4687828801613797565b949793965093946060013593505050565b60008060408385031215613d6a57600080fd5b613d738361358f565b9150613d816020840161358f565b90509250929050565b600080600080600060a08688031215613da257600080fd5b613dab8661358f565b9450613db96020870161358f565b9350604086013592506060860135915060808601356001600160401b03811115613de257600080fd5b6138a688828901613797565b600080600060608486031215613e0357600080fd5b613e0c8461358f565b95602085013595506040909401359392505050565b600181811c90821680613e3557607f821691505b602082108103613e5557634e487b7160e01b600052602260045260246000fd5b50919050565b60008351613e6d818460208801613608565b835190830190613e81818360208801613608565b01949350505050565b634e487b7160e01b600052603260045260246000fd5b634e487b7160e01b600052601160045260246000fd5b808202811582820484141761074c5761074c613ea0565b634e487b7160e01b600052601260045260246000fd5b600082613ef257613ef2613ecd565b500490565b6020808252600f908201526e0988a9c8ea890be9a92a69a82a8869608b1b604082015260600190565b600060018201613f3257613f32613ea0565b5060010190565b8082018082111561074c5761074c613ea0565b6020808252600a90820152691a5b9d985b1a59081a5960b21b604082015260600190565b6000808335601e19843603018112613f8757600080fd5b8301803591506001600160401b03821115613fa157600080fd5b60200191503681900382131561317857600080fd5b6000808335601e19843603018112613fcd57600080fd5b83016020810192503590506001600160401b03811115613fec57600080fd5b80360382131561317857600080fd5b81835281816020850137506000828201602090810191909152601f909101601f19169091010190565b80356001600160801b03811681146135a657600080fd5b6020815261405c6020820161404f8461358f565b6001600160a01b03169052565b600061406a6020840161358f565b6001600160a01b038116604084015250604083013560608301526140906060840161358f565b6001600160a01b038116608084015250608083013560a08301526140b760a0840184613fb6565b6101808060c08601526140cf6101a086018385613ffb565b925060c086013560e0860152610100915060e0860135828601526140f482870161358f565b915061012061410d818701846001600160a01b03169052565b614118818801614024565b925050610140614132818701846001600160801b03169052565b61413d818801614024565b925050610160614157818701846001600160801b03169052565b9590950135939094019290925250919050565b8284823760609190911b6bffffffffffffffffffffffff19169101908152601401919050565b8181038181111561074c5761074c613ea0565b6000826141b2576141b2613ecd565b500690565b6020808252600c908201526b2a27afad22a927afa0a2222960a11b604082015260600190565b60208082526010908201526f125394d551919250d251539517d0905360821b604082015260600190565b60408152600061421a604083018561397d565b828103602084015261422c818561397d565b95945050505050565b601f82111561126957600081815260208120601f850160051c8101602086101561425c5750805b601f850160051c820191505b8181101561156357828155600101614268565b81516001600160401b03811115614294576142946136c1565b6142a8816142a28454613e21565b84614235565b602080601f8311600181146142dd57600084156142c55750858301515b600019600386901b1c1916600185901b178555611563565b600085815260208120601f198616915b8281101561430c578886015182559484019460019091019084016142ed565b508582101561432a5787850151600019600388901b60f8161c191681555b5050505050600190811b01905550565b60408152600061434d604083018561362c565b828103602084015261422c818561362c565b60006020828403121561437157600080fd5b6125cc82614024565b6001600160a01b0386811682528516602082015260a0604082018190526000906143a69083018661397d565b82810360608401526143b8818661397d565b905082810360808401526143cc818561362c565b98975050505050505050565b6000602082840312156143ea57600080fd5b81516125cc816135d5565b600060033d11156131375760046000803e5060005160e01c90565b600060443d101561441e5790565b6040516003193d81016004833e81513d6001600160401b03816024840111818411171561444d57505050505090565b82850191508151818111156144655750505050505090565b843d870101602082850101111561447f5750505050505090565b61448e602082860101876136d7565b509095945050505050565b6001600160a01b03868116825285166020820152604081018490526060810183905260a0608082018190526000906135849083018461362c565b600082516144e5818460208701613608565b9190910192915050565b8183823760009101908152919050565b634e487b7160e01b600052602160045260246000fd5b60006020828403121561452757600080fd5b81516125cc81613bde56fe416464726573733a206c6f772d6c6576656c2064656c65676174652063616c6c206661696c6564a2646970667358221220f7cc69d52854890fb8e227222beb04604de4e0b397d07a858a15cf8da0d00f4764736f6c63430008110033",
  "linkReferences": {},
  "deployedLinkReferences": {}
}