{
  "_format": "hh-sol-artifact-1",
  "contractName": "ReentrancyGuardStorage",
  "sourceName": "@thirdweb-dev/contracts/extension/upgradeable/ReentrancyGuard.sol",
  "abi": [
    {
      "inputs": [],
      "name": "REENTRANCY_GUARD_STORAGE_POSITION",
      "outputs": [
        {
          "internalType": "bytes32",
          "name": "",
          "type": "bytes32"
        }
      ],
      "stateMutability": "view",
      "type": "function"
    }
  ],
  "bytecode": "0x60a6610038600b82828239805160001a607314602b57634e487b7160e01b600052600060045260246000fd5b30600052607381538281f3fe730000000000000000000000000000000000000000301460806040526004361060335760003560e01c8063984b83ff146038575b600080fd5b605e7f1d281c488dae143b6ea4122e80c65059929950b9c32f17fc57be22089d9c3b0081565b60405190815260200160405180910390f3fea264697066735822122055f04d78498ba37a6c99765f95718572529caf0a23205ba99b7ddd4c88170a5664736f6c63430008110033",
  "linkReferences": {},
  "deployedLinkReferences": {}
}